:020000040000FA
:06000000D4EF0EF0120027
:06080000D4EF0EF012001F
:06082A000100D41D0000D6
:08083000F101000004000000CA
:080838003F0E926E070E966E52
:10084000010EC26E3C0EC06EC08E9368F19E010117
:10085000BC6BBD6B800EBE6F400EBF6F8C6A956A1D
:10086000000EB06FB16BAE6FAF6BAC6FAD6BAA6FBC
:10087000AB6BA86FA96B1200E7DB060E0101ED5D03
:1008800003E36D50020B01E001D07DDB1200D9CFF4
:10089000E6FFE1CFD9FFFE0EDB50010BE8B0C284CA
:1008A000E8A0C294FE0EDB50020BE8407F0BE8B0DC
:1008B000C286E8A0C296FE0EDB50040BE840E8407A
:1008C0003F0BE8B0C288E8A0C298C282C2B2FED78D
:1008D000C3CFF3FFC4CFF4FF00D0E552E7CFD9FF79
:1008E0001200D9CFE6FFE1CFD9FF040EE1260101C6
:1008F0002A0E826F430E836FB86BB96BBA6BBB6BFA
:10090000DF6A0A0EDF5C1DE2010EDB6ADBCFE6FF69
:10091000BEDFE5520101B851F324B86FB951F4209C
:10092000B96FDE52010EDD6EDBCFE6FFB0DFE552C0
:100930000101BA51F324BA6FBB51F420BB6FDF2A17
:10094000E0D70A0E0B6E0C6AB8C106F0B9C107F009
:10095000BEEC0EF006C0B8F107C0B9F10A0E0B6E7E
:100960000C6ABAC106F0BBC107F0BEEC0EF006C0BF
:10097000BAF107C0BBF10101000ED880B855000ED6
:10098000B95535E22D0E846FDF6A040EDF5C2EE26E
:10099000B8C110F0B9C111F00A0E0B6E0C6A10C08C
:1009A00006F011C007F0BEEC0EF002C010F003C05C
:1009B00011F00F0E10143009E66E030EDF24EA6A00
:1009C000820FE96E010EEA22E552E750EF6E0A0E41
:1009D0000B6E0C6AB8C106F0B9C107F0BEEC0EF0A0
:1009E00006C0B8F107C0B9F1DF2ACFD771D0000E29
:1009F000D880BA55000EBB5535E2300E846FDF6AE1
:100A0000040EDF5C2EE2BAC110F0BBC111F00A0E79
:100A10000B6E0C6A10C006F011C007F0BEEC0EF0B1
:100A200002C010F003C011F00F0E10143009E66E72
:100A3000030EDF24EA6A820FE96E010EEA22E55214
:100A4000E750EF6E0A0E0B6E0C6ABAC106F0BBC11E
:100A500007F0BEEC0EF006C0BAF107C0BBF1DF2A0A
:100A6000CFD736D0300E846FB66BB76BDF6A040E0B
:100A7000DF5C2EE2B6C110F0B7C111F00A0E0B6EAA
:100A80000C6A10C006F011C007F0BEEC0EF002C0F8
:100A900010F003C011F00F0E10143009E66E030EB3
:100AA000DF24EA6A820FE96E010EEA22E552E7507E
:100AB000EF6E0A0E0B6E0C6AB6C106F0B7C107F0F6
:100AC000BEEC0EF006C0B6F107C0B7F1DF2ACFD7F3
:100AD0000101B86BB96BBA6BBB6BDF6A0A0EDF5CE6
:100AE00020E2DE52020EDD6E010EDBCFE6FFCFDE2E
:100AF000E5520101B851F324B86FB951F420B96F30
:100B0000DE52030EDD6E010EDBCFE6FFC0DEE552E6
:100B10000101BA51F324BA6FBB51F420BB6FDF2A35
:100B2000DDD70A0E0B6E0C6AB8C106F0B9C107F02A
:100B3000BEEC0EF006C0B8F107C0B9F10A0E0B6E9C
:100B40000C6ABAC106F0BBC107F0BEEC0EF006C0DD
:100B5000BAF107C0BBF10101000ED880B855000EF4
:100B6000B95535E22D0E896FDF6A040EDF5C2EE287
:100B7000B8C110F0B9C111F00A0E0B6E0C6A10C0AA
:100B800006F011C007F0BEEC0EF002C010F003C07A
:100B900011F00F0E10143009E66E080EDF24EA6A19
:100BA000820FE96E010EEA22E552E750EF6E0A0E5F
:100BB0000B6E0C6AB8C106F0B9C107F0BEEC0EF0BE
:100BC00006C0B8F107C0B9F1DF2ACFD771D0000E47
:100BD000D880BA55000EBB5535E2300E896FDF6AFA
:100BE000040EDF5C2EE2BAC110F0BBC111F00A0E98
:100BF0000B6E0C6A10C006F011C007F0BEEC0EF0D0
:100C000002C010F003C011F00F0E10143009E66E90
:100C1000080EDF24EA6A820FE96E010EEA22E5522D
:100C2000E750EF6E0A0E0B6E0C6ABAC106F0BBC13C
:100C300007F0BEEC0EF006C0BAF107C0BBF1DF2A28
:100C4000CFD736D0300E896FB66BB76BDF6A040E24
:100C5000DF5C2EE2B6C110F0B7C111F00A0E0B6EC8
:100C60000C6A10C006F011C007F0BEEC0EF002C016
:100C700010F003C011F00F0E10143009E66E080ECC
:100C8000DF24EA6A820FE96E010EEA22E552E7509C
:100C9000EF6E0A0E0B6E0C6AB6C106F0B7C107F014
:100CA000BEEC0EF006C0B6F107C0B7F1DF2ACFD711
:100CB000020EDB6A030EDB6ADE52040EDD6EDF6AB3
:100CC0000A0EDF5C23E2020EDBCF12F0030EDBCF55
:100CD00013F012C0E6FF13C0E6FF010EDBCFE6FF04
:100CE000D6DDE552E552E7CF13F0E552E7CF12F03B
:100CF0001250F324106E1350F420116E020E10C027
:100D0000DBFF030E11C0DBFFDF2ADAD7020EDBCFD9
:100D1000B6F1030EDBCFB7F10A0E0B6E0C6AB6C14B
:100D200006F0B7C107F0BEEC0EF006C0B6F107C082
:100D3000B7F1DF6A040EDF5C2EE2B6C110F0B7C176
:100D400011F00A0E0B6E0C6A10C006F011C007F00D
:100D5000BEEC0EF002C010F003C011F00F0E101424
:100D60003009E66E0C0EDF24EA6A820FE96E010E8E
:100D7000EA22E552E750EF6E0A0E0B6E0C6AB6C11E
:100D800006F0B7C107F0BEEC0EF006C0B6F107C022
:100D9000B7F1DF2ACFD70F0E811430090101926F0E
:100DA00081380F0B0F0B3009936F0D0E946F0101FB
:100DB000C1510DE10101820EC26F010EC36F01012D
:100DC000130EC66F0101C76B0101010EC16F040E46
:100DD000E15C02E2E16AE552E16EE552E7CFD9FF5C
:100DE0001200D9CFE6FFE1CFD9FFFE0EDB50090A92
:100DF00038E0010A33E00F0A2EE0010A29E0030A75
:100E000024E0010A1FE0070A1AE0010A15E0030ABC
:100E10000BE0010A01E028D0FD0EDB50010BE8B029
:100E20008C84E8A08C9420D0FD0EDB50010BE8B040
:100E30008C86E8A08C9618D08C988C9A15D08C88CB
:100E40008C9A12D08C988C8A0FD08C888C8A0CD07B
:100E50008C9C8C9E09D08C8C8C9E06D08C9C8C8E0D
:100E600003D08C8C8C8E00D0E552E7CFD9FF1200D6
:100E700001012A0E826F570E836F2D0E846F856FCE
:100E8000310E866F300E876F380E886F0D0E896FAA
:100E90000101C1510DE10101820EC26F010EC36F4C
:100EA0000101080EC66F0101C76B0101010EC16F80
:100EB00012000101AC51AD1107E12A0EB25D03E150
:100EC000010EAC6FAD6B38D0010EAC1901E1AD5124
:100ED00009E1AC6BAD6B410EB25D03E1020EAC6F8C
:100EE000AD6B2AD0020EAC1901E1AD5107E10F0E36
:100EF000B215B36F030EAC6FAD6B1ED0030EAC1901
:100F000001E1AD5107E1010EB215B46F040EAC6FF3
:100F1000AD6B12D0040EAC1901E1AD510DE10D0E17
:100F2000B25D07E1B4C1E6FFB3C1E6FF5ADFE552A7
:100F3000E5520101AC6BAD6B12000101AE51AF1176
:100F400007E12A0EB25D03E1010EAE6FAF6B1AD05E
:100F5000010EAE1901E1AF5109E1AE6BAF6B570E57
:100F6000B25D03E1020EAE6FAF6B0CD0020EAE1994
:100F700001E1AF5107E10D0EB25D01E179DF010141
:100F8000AE6BAF6B12000101A22B000EA323880EE3
:100F9000A21902E1130EA31903E1A26BA36BA1DC5A
:100FA000200EE66E020EE66E010EE66EF6EC08F01E
:100FB000E552E552E55200092BE00101C051010163
:100FC000A46FA56BA66BA76BA451A65DA551A759ED
:100FD0001FE2020EA625E96E010EA721EA6EEF5070
:100FE000E66E420EA825E96E010EA921EA6EE552D1
:100FF000E750EF6EA82B000EA923400EA81901E1BF
:10100000A95102E1A86BA96BA62B000EA723DCD780
:101010000101AA51A81902E1AB51A91914E0420E2D
:10102000AA25E96E010EAB21EA6EEFCFB2F1AA2B31
:10103000000EAB23400EAA1901E1AB5102E1AA6BED
:10104000AB6B37DF7ADF12000101F351F41104E1D9
:10105000100EF36F270EF46FF307000EF45B6DA212
:101060000BD0F351F41107E18C708C50010B02E0AE
:101070008C8201D08C922FD00101ED5103E18C9034
:101080008C9229D0ED0503E18C808C8224D0020E55
:10109000ED5D03E18C808C921ED0030EED5D03E1CB
:1010A0008C908C8218D0050EED5D07E10101F351A3
:1010B000F41102E18C708C920ED0060EED5D0BE106
:1010C0000101F351F41107E18C708C50010B02E027
:0810D0008C9201D08C82120009
:0810D800040120511F0B010867
:1010E00001E05BD02051600BE842E842E842E84270
:1010F000E842010801E051D0245103E0240501E059
:101100004CD02151230A48E0010A40E0030A30E0B4
:10111000010A25E0240A22E0070A1FE0010A1CE078
:10112000030A11E0010A01E038D00101030EE66F65
:101130000101D30EE76F010EE86F0101EE9301018B
:10114000080EEB6F2AD00101030EE66F0101D30EEA
:10115000E96F010EEA6F21D020D01FD01ED001010F
:10116000030EE66F0101C80EE96F010EEA6F15D09C
:101170000101030EE66F0101C80EE76F010EE86F73
:101180000101EE930101070EEB6F07D00101030E81
:10119000E66F22C4CFF101D000D012000101C86B6C
:1011A000C20EC96F010ECA6FCB6BCC6BCD6B080E34
:1011B000CE6FC16BC06B1A0E726E1E0E736E040181
:1011C000000E166F050E176F400E146F0401196F95
:1011D000080E1A6F050E1B6F880E186F0401480E5B
:1011E0001E6F050E1F6F400E1C6F1200D9CFE6FF59
:1011F000E1CFD9FF0101C06B040118BF30D0FC0E54
:10120000DBCF10F01951D880105403E2FC0E19C442
:10121000DBFF0101C06BFC0EDB50C05D19E2C05169
:10122000EA6A080FE96E050EEA22EF50E66EC05139
:10123000E76EFD0EDBCFE9FFFE0EDBCFEAFFE750E6
:10124000E926000EEA22E552E750EF6EC02BE3D705
:101250000401400E196F1817187D880E181301012C
:10126000C05100D0E552E7CFD9FF1200D9CFE6FF39
:10127000E1CFD9FFE6520101C15101E02FD0DF6A71
:10128000DF2ADF50106E116AFF0E101801E11150B5
:1012900001E10BD0FD0EDBCFE9FFDB2AFE0EDBCF39
:1012A000EAFF01E3DB2AEF50EBE1DF50106E116A39
:1012B000D950FD0FE96EFF0EDA20EA6E1050EE5E97
:1012C0001150ED5AFD0EDBCFC2F1FE0EDBCFC3F1A4
:1012D000DFCFC6F10101C76B010EC16FE552E552C8
:1012E000E7CFD9FF1200D9CFE6FFE1CFD9FFE65211
:1012F0000101C15101E030D0DF6ADF2ADF50106EFA
:10130000116AFF0E101801E1115001E10CD0FD0E21
:10131000DBCFF6FFDB2AFE0EDBCFF7FF01E3DB2A94
:101320000800F550EAE1DF50106E116AD950FD0F48
:10133000E96EFF0EDA20EA6E1050EE5E1150ED5AA3
:10134000FD0EDBCFC2F1FE0EDBCFC3F1DFCFC6F166
:101350000101010EC76FC16FE552E552E7CFD9FF1A
:101360001200D9CFE6FFE1CFD9FFE65204011CBF3E
:101370006BD0030E0101C15D01E1C16BC15101E1FF
:1013800063D0020EC15D06E104011D6B0101030E75
:10139000C16F54D0C10552E1400E106E116AC651A2
:1013A000105C000E115803E2400EDF6E02D0C6C181
:1013B000DFFFDFCF1DF4DF50C65DC66F480EC46F80
:1013C000050EC56FC70515E1DF5012E0C2C1F6FF7B
:1013D000C3C1F7FF0800F550C4C1E9FFC5C1EAFF6A
:1013E000EF6EC42B000EC523C22BC323DF06ECD740
:1013F00013D0DF5011E0C2C1E9FFC3C1EAFFEF50D3
:10140000C4C1E9FFC5C1EAFFEF6EC42B000EC523BE
:10141000C22BC323DF06EDD7C65110E104011D51D5
:10142000106E116A400E101801E1115004E1010123
:10143000020EC16F03D00101030EC16F400E040103
:101440001C171C7D880E1C13E552E552E7CFD9FF0F
:02145000120088
:0E14520004012051600BE842E842E842E84203
:10146000E842000901E055D02151070A51E00B0A7A
:101470004FE0070A40E0010A2CE00B0A28E0020ACC
:1014800026E0030A22E0080A12E0010A0EE00F0A31
:101490000AE0030A01E03CD00101010EE66F010100
:1014A000040EED6F36D036D834D090D832D001014A
:1014B000010EE66F0101EF0EE76F010EE86F01010B
:1014C000EE930101010EEB6F24D0A8D822D0F5D8FD
:1014D00020D00101010EE66F040124510101E76FE4
:1014E000E86BF00EE727010EE8230101EE930101FE
:1014F000010EEB6F0ED00101010EE66F04012451C5
:10150000EA6AF00FE96E010EEA2222C4EFFF01D071
:1015100000D01200800E0401205D57E12351030A20
:1015200034E0010A10E0030A01E04DD00101010E90
:10153000E66F0101D20EE76F1B0EE86F120E01017C
:10154000EB6FEC6B40D00101010EE66F04012251FC
:10155000F66EF76AD890F636F736990EF6261C0E18
:10156000F7220900F5CFE7F10A00F5CFE8F1020E06
:101570000101F76AE725F66EE851F7220900F5CF79
:10158000EBF10A00F5CFECF11ED00101010EE66F80
:1015900004012251F66EF76AD890F636F7369D0EA2
:1015A000F6261C0EF7220900F5CFE7F10A00F5CF69
:1015B000E8F1E7C1F6FFE8C1F7FF0800F5500101C7
:1015C000EB6FEC6B00D00101EE8312000101010E04
:1015D000E66F0F0EE66E710EE66E0F0EE66ED4EC41
:1015E0000DF0E552E552E552010EE66EF00EE66EA4
:1015F000010EE66ED4EC0DF0E552E552E55222C440
:10160000EFF10401225104E10101050EED6F05D057
:101610000101060EED6FCEEC08F012000401286BFC
:10162000296B040120511F0B020A15E0030A0FE089
:10163000010A01E034D00101010EE66F02D004017D
:1016400028810101EEA102D00401288328D00101E4
:10165000010EE66F24D00101010EE66F0401245152
:101660000F0B080DF350116A000F106E040E1122BB
:101670002451800B01E0010E040DF35001011024F0
:10168000E96F000E1120EA6FE9C1E9FFEAC1EAFF44
:10169000EF50040B03E00401010E286F00D001019C
:1016A000E6050AE10101280EE76F040EE86F01016B
:1016B000EE930101020EEB6F12000401220510E10E
:1016C00020511F0B00090CE10101010EE66F030E12
:1016D0000401215D03E10101EE8102D00101EE91DF
:1016E000040122513AE120511F0B020836E1245136
:1016F0000F0B000932E00101010EE66F04012451D5
:101700000F0B080DF350116A000F106E040E11221A
:101710002451800B01E0010E040DF350010110244F
:10172000E96F000E1120EA6F030E0401215D07E14D
:10173000840EE9C1E9FFEAC1EAFFEF6E0ED024AFE3
:1017400006D0E9C1E9FFEAC1EAFFEF6A06D0880ED8
:0C175000E9C1E9FFEAC1EAFFEF6E1200F8
:04175C006C5002E0EB
:10176000000E01D0010E00090BE0040100513C0BFA
:10177000E842E8420D0802E10CD801D040D808D078
:101780006C5002E0000E01D0010E040901E047D8C0
:101790001200D9CFE6FFE1CFD9FFE6520101E56B98
:1017A000E66BEB6BEC6B29EC0AF0DF6ADF50106E36
:1017B000116A010E105C000E11581BE20101E65186
:1017C00001E017D0F76ADF34FE0BF736F66EA30E92
:1017D000F6261C0EF7220900F5CF10F00800F5CF11
:1017E00011F004D011C0FAFF1050F96EFBDFDF2AB0
:1017F000DDD7DDD8E552E552E7CFD9FF1200020E62
:101800000101E55D0AE196D8040100BD03D0C80ED0
:10181000006F02D0880E006F01D00FD91200040EA5
:101820000101ED5D0AE122C46EFF6E50000803E283
:10183000050EED6F02D0030EED6F0101E5050AE123
:101840000BD8040104BD03D0C80E046F02D0880E6B
:10185000046F01D0F2D81200D9CFE6FFE1CFD9FF53
:10186000020EE1260101080EEB5D000EEC5905E2C7
:10187000EBC1DEFFECC1DDFF03D0080EDE6EDD6ADA
:10188000040104930491010EDB500413DFCF05F42F
:10189000000EDB500101EB5F010EDB50EC5B280E0C
:1018A000E96F040EEA6F0101EEA31ED0D9CFE9FF64
:1018B000DACFEAFFEE50ED1016E0E7C1F6FFE8C11F
:1018C000F7FF0800F550E9C1E9FFEAC1EAFFEF6E52
:1018D0000101E92B000EEA23E72BE823DF06010EC6
:1018E00001E2DB06E3D71CD0D9CFE9FFDACFEAFF6C
:1018F000EE50ED1015E0E7C1E9FFE8C1EAFFEF5057
:10190000E9C1E9FFEAC1EAFFEF6E0101E92B000E30
:10191000EA23E72BE823DF06010E01E2DB06E4D72A
:10192000020EE15C02E2E16AE552E16EE552E7CFC8
:10193000D9FF1200D9CFE6FFE1CFD9FF020EE12691
:10194000030E04010015E76E010EE7CFDBFF01C4B3
:10195000DFFFDE500101EB27DD50EC23280EE76F9F
:10196000040EE86FD9CFE9FFDACFEAFFEE50ED10B1
:1019700014E0E7C1E9FFE8C1EAFFEF50E9C1E9FF80
:10198000EAC1EAFFEF6EE92B000EEA23E72BE8231A
:10199000DF06010E01E2DB06E5D7020EE15C02E2A2
:1019A000E16AE552E16EE552E7CFD9FF120001018D
:1019B000E6510CE10401080E016F200E026F040EC7
:1019C000036F840E006F0401046F35D0040120AF53
:1019D00022D00101EB510401265D0101EC5104010B
:1019E000275904E226C4EBF127C4ECF135DF0101ED
:1019F000010EE56F0401080E016F200E026F040E48
:101A0000036F800E006F0401280E066F040E076F2F
:101A1000C80E046F10D00101020EE56F0401056BC2
:101A2000C80E046F0401080E016F280E026F040E29
:101A3000036FC80E006F6D9812000101E56B040181
:101A4000080E016F200E026F040E036F880E006FE8
:061A50000401046B12000A
:0A1A56006DA60FD802D06DB613D8AC
:101A60000101ED0508E16DBA06D0686A696A69800E
:101A70006988020EED6F12006D6A696A6D86010158
:101A8000010EED6F12006D6A696A0101ED6B1200C3
:101A900043EF0DF00101ED5101E13AD06850040B24
:101AA00004E06950040B01E03CD86DB231D06850BD
:101AB000010B04E06950010B01E054D86850100B91
:101AC00004E06950100B01E024D86850400B04E09A
:101AD0006950400B01E03BD86850200B04E069508E
:101AE000200B01E036D86850020B04E06950020B6D
:101AF00001E036D8030E0101ED5D01E209D0685026
:101B0000080B06E06950080B03E0AEEC0BF068969A
:101B10001200698468986D82A19AA08A0300A09A35
:101B200012006D926994689412000101EEA10ED02A
:101B3000F8DF6D840101080EF56F070EF66FF507EB
:101B4000000EF65BF551F611FAE16D941200689CF7
:101B5000120070A003D01DEC0DF07090689A120076
:101B6000689212006A6A686A9F0E6B6E7B0E696EDD
:101B70006E6A0F0EE66E710EE66E0F0EE66E14D8EC
:101B8000E552E552E552160E706E68A602D06896D0
:101B9000FCD76D981DEC0DF00101EE910101EF6B8A
:101BA0000101030EED6F1200D9CFE6FFE1CFD9FF9F
:101BB000FD0EDBCFE9FFFE0EDBCFEAFFFC0EDB50B4
:101BC00004E0EE6AFC0EDB06F9D7E552E7CFD9FF59
:021BD000120001
:0E1BD2001201000202000008D8046A7500002B
:101BE00001020001090243000201008032090400E1
:101BF0000001020201000524001001042402020574
:101C000024060001052401000107058203080002E3
:101C100009040100020A0000000705030240000059
:101C2000070583024000000403090408034100542F
:101C300000440066034100750074006F006D006190
:101C40000074006900630020005400690074007291
:101C5000006100740069006E0067002000440065A8
:101C600000760069006300650020005500530042C3
:101C700000200043006F006D006D0075006E00696C
:101C80000063006100740069006F006E0073002043
:101C90000070006F0072007400E41BE41B271C2B13
:051CA0001C331CD810EC
:0A1CA6002A0EF66E080EF76E000E0F
:101CB000F86E01010900F550E06F0900F550E16F81
:101CC00003E1E06701D03DD00900F550DB6F09006A
:101CD000F550DC6F0900F550DD6F09000900F55083
:101CE000E96E0900F550EA6E090009000900F55097
:101CF000DE6F0900F550DF6F09000900F6CFE2F151
:101D0000F7CFE3F1F8CFE4F1DBC1F6FFDCC1F7FF79
:101D1000DDC1F8FF0101DE5302E1DF5307E00900F6
:101D2000F550EE6EDE07F8E2DF07F9D7E2C1F6FF05
:101D3000E3C1F7FFE4C1F8FF0101E007000EE15B3A
:041D4000BFD71200F7
:0C1D440005D812D83CEC04F0FCD71200CB
:101D50000F0EC11292829284140E6F6E0101ED6B10
:101D60000101EE6B0101EF6B1CEF04F02BEC0DF0A9
:0C1D70006FBE02D04AEC0DF0B1EF09F09C
:041D7C00036A026A8A
:101D8000100EE76ED89006360736023603360B5033
:101D9000025C0C50035805E30B50025E0C50035AD2
:081DA000062AE72EF0D712001D
:081DA80013EE00F023EE00F041
:101DB000F86A0F9C53EC0EF0E9EC0EF0A2EC0EF07A
:041DC000FBD712003B
:0C1DC40000EE00F00F0EEE6AEA62FDD7A0
:021DD0001200FF
:021DD2001200FD
:041DD400000000000B
:00000001FF
